:100000000C9434000C9446000C9446000C9446006A
:100010000C9446000C9446000C9446000C94460048
:100020000C9446000C9446000C9446000C94460038
:100030000C9446000C94CE010C9446000C9446009F
:100040000C9446000C94E3010C94F6000C944600CA
:100050000C9451010C9446000C9446000C944600FC
:100060000C9446000C94460011241FBECFEFD8E03C
:10007000DEBFCDBF21E0A0E0B1E001C01D92AD30F8
:10008000B207E1F70E9448000C9401030C940000B1
:10009000CF93DF93CDB7DEB70E945C000E947F0054
:1000A0000E94A2000E94D7007894809107018823C3
:1000B000E1F30E94A602F9CFCF93DF93CDB7DEB76D
:1000C00087E290E027E230E0F90120812160FC0125
:1000D000208388E290E028E230E0F90120812E7F41
:1000E000FC01208385E290E025E230E0F9012081E7
:1000F0002460FC0120830000DF91CF910895CF930D
:10010000DF93CDB7DEB78CE490E02CE430E0F9016A
:1001100020812064FC0120838CE490E02CE430E01A
:10012000F90120812068FC0120838CE490E02CE41C
:1001300030E0F90120812061FC0120830000DF9183
:10014000CF910895CF93DF93CDB7DEB784EC90E0E5
:1001500027E6FC01208385EC90E0FC01108281EC15
:1001600090E021EC30E0F90120812061FC01208346
:1001700081EC90E021EC30E0F90120812068FC0165
:10018000208381EC90E021EC30E0F90120812064B3
:10019000FC01208382EC90E022EC30E0F901208128
:1001A0002660FC0120830000DF91CF910895CF935A
:1001B000DF93CDB7DEB78FE690E02FE630E0F901B0
:1001C00020812160FC01208384E890E0FC01118201
:1001D000108281E890E021E830E0F901208125607B
:1001E000FC0120830000DF91CF9108951F920F92B0
:1001F00000905F000F9211242F933F934F935F93D2
:100200006F937F938F939F93AF93BF93EF93FF93DE
:10021000CF93DF93CDB7DEB784E890E0FC01808117
:1002200091814F9710F01092060184E890E0FC0154
:100230001182108280910601882F90E026EC30E038
:10024000F901208180509F4FFC012083809106019D
:100250008F5F8093060190910001809106019817AD
:1002600029F4109206010E94900106C080910601B7
:100270008A3010F0109206010000DF91CF91FF91BB
:10028000EF91BF91AF919F918F917F916F915F910E
:100290004F913F912F910F9000925F000F901F9010
:1002A00018951F920F9200905F000F9211242F93C8
:1002B0003F938F939F93EF93FF93CF93DF93CDB7AC
:1002C000DEB780910301282F30E0809108019091E2
:1002D00009012817390721F081E08093070112C036
:1002E00081EC90E021EC30E0F9012081277FFC01D6
:1002F000208381EC90E021EC30E0F9012081206145
:10030000FC012083DF91CF91FF91EF919F918F911D
:100310003F912F910F9000925F000F901F901895C2
:10032000CF93DF9300D0CDB7DEB7809100018983F2
:100330008981882F90E00197BC0180E091E00E94C4
:100340003A028A838981882F90E0019780509F4FDD
:10035000FC0190818A819817C9F480910101882F4E
:1003600090E08130910519F0029791F012C08091D0
:100370000101882F90E090930B0180930A018091F6
:100380000201882F90E00E948F0203C0000001C08C
:1003900000000F900F90DF91CF9108951F920F9260
:1003A00000905F000F921124CF93DF93CDB7DEB79B
:1003B000109206010000DF91CF910F9000925F0034
:1003C0000F901F9018951F920F9200905F000F9250
:1003D00011242F933F934F935F936F937F938F934A
:1003E0009F93AF93BF93EF93FF93CF93DF93CDB7DB
:1003F000DEB788E290E028E230E0F9012081216058
:10040000FC01208380910A0190910B0181309105BC
:1004100031F082309105C1F0892B51F016C0109255
:100420000B0110920A018EE490E0FC0110820DC0D5
:1004300081E0809307018EE490E0FC01808180934D
:100440000C010E94E20201C000000000DF91CF9188
:10045000FF91EF91BF91AF919F918F917F916F919C
:100460005F914F913F912F910F9000925F000F90FD
:100470001F901895CF93DF93CDB7DEB727970FB6B0
:10048000F894DEBF0FBECDBF9D838C837F836E83C8
:100490008FEF9FEF9A8389832FC08C819D819C0170
:1004A0002F5F3F4F3D832C83FC018081882F90E09C
:1004B000982F88279C0189819A81822793279A8384
:1004C00089831B8216C089819A8199234CF4898182
:1004D0009A81880F991FF1E28F27F0E19F2704C0CE
:1004E00089819A81880F991F9A8389838B818F5F75
:1004F0008B838B81883038F38E819F819C012150C2
:1005000031093F832E83892B41F6898127960FB6C7
:10051000F894DEBF0FBECDBFDF91CF910895CF938A
:10052000DF9300D0CDB7DEB79A83898389819A8122
:100530008F779A8389838EE490E02981FC01208360
:1005400000000F900F90DF91CF910895CF93DF932C
:10055000CDB7DEB7000080EC90E0FC018081882FF1
:1005600090E080729927892BB1F381EC90E021EC27
:1005700030E0F90120812F7EFC01208381EC90E0A6
:1005800021EC30E0F90120812860FC01208386EC19
:1005900090E020910801309109012D5F3E4FF90153
:1005A0002081FC012083809108019091090101962E
:1005B0009093090180930801109207010000DF91D8
:1005C000CF910895CF93DF931F92CDB7DEB783E02D
:1005D0008093030180910C018093040162E070E03C
:1005E00083E091E00E943A0289838981809305012A
:1005F000109209011092080100000F90DF91CF9135
:060600000895F894FFCFFD
:00000001FF
